{
  "contractName": "CrowdFunding",
  "abi": [
    {
      "inputs": [
        {
          "internalType": "uint256",
          "name": "",
          "type": "uint256"
        },
        {
          "internalType": "address",
          "name": "",
          "type": "address"
        }
      ],
      "name": "isParticipate",
      "outputs": [
        {
          "internalType": "bool",
          "name": "",
          "type": "bool"
        }
      ],
      "stateMutability": "view",
      "type": "function"
    },
    {
      "inputs": [],
      "name": "numCampaign",
      "outputs": [
        {
          "internalType": "uint256",
          "name": "",
          "type": "uint256"
        }
      ],
      "stateMutability": "view",
      "type": "function"
    },
    {
      "inputs": [
        {
          "internalType": "address payable",
          "name": "receiver",
          "type": "address"
        },
        {
          "internalType": "uint256",
          "name": "goal",
          "type": "uint256"
        }
      ],
      "name": "newCampaign",
      "outputs": [
        {
          "internalType": "uint256",
          "name": "campaignID",
          "type": "uint256"
        }
      ],
      "stateMutability": "nonpayable",
      "type": "function"
    },
    {
      "inputs": [
        {
          "internalType": "uint256",
          "name": "campaignID",
          "type": "uint256"
        }
      ],
      "name": "bid",
      "outputs": [],
      "stateMutability": "payable",
      "type": "function"
    },
    {
      "inputs": [
        {
          "internalType": "uint256",
          "name": "campaignID",
          "type": "uint256"
        }
      ],
      "name": "withraw",
      "outputs": [
        {
          "internalType": "bool",
          "name": "reached",
          "type": "bool"
        }
      ],
      "stateMutability": "nonpayable",
      "type": "function"
    }
  ],
  "bytecode": "0x608060405234801561001057600080fd5b50610456806100206000396000f3fe608060405260043610610066577c01000000000000000000000000000000000000000000000000000000006000350463454a2ab3811461006b578063728dda19146100805780638129dfc9146100d0578063f03cc2b9146100f4578063f7572cf314610114575b600080fd5b61007e610079366004610325565b610134565b005b34801561008c57600080fd5b506100bb61009b366004610363565b600360209081526000928352604080842090915290825290205460ff1681565b60405190151581526020015b60405180910390f35b3480156100dc57600080fd5b506100e660005481565b6040519081526020016100c7565b34801561010057600080fd5b506100bb61010f366004610325565b61023a565b34801561012057600080fd5b506100e661012f366004610393565b6102bf565b6000818152600360209081526040808320338452909152902054819060ff161561015d57600080fd5b6000828152600160205260408120600381018054919234926101809084906103ee565b90915550506001818101805460009061019a9084906103ee565b909155505050600082815260026020818152604080842081518083018352338082523482860190815283546001808201865594895286892093519702909201805473ffffffffffffffffffffffffffffffffffffffff191673ffffffffffffffffffffffffffffffffffffffff909716969096178655905194820194909455958452600382528084209284529190529020805460ff191690921790915550565b60008181526001602052604081206002810154600382015410156102615750600092915050565b6003810180546000918290558254604051919273ffffffffffffffffffffffffffffffffffffffff9091169183156108fc0291849190818181858888f193505050501580156102b4573d6000803e3d6000fd5b506001949350505050565b6000805481806102ce83610407565b909155506000818152600160205260409020805473ffffffffffffffffffffffffffffffffffffffff191673ffffffffffffffffffffffffffffffffffffffff959095169490941784556002909301919091555090565b60006020828403121561033757600080fd5b5035919050565b73ffffffffffffffffffffffffffffffffffffffff8116811461036057600080fd5b50565b6000806040838503121561037657600080fd5b8235915060208301356103888161033e565b809150509250929050565b600080604083850312156103a657600080fd5b82356103b18161033e565b946020939093013593505050565b7f4e487b7100000000000000000000000000000000000000000000000000000000600052601160045260246000fd5b80820180821115610401576104016103bf565b92915050565b600060018201610419576104196103bf565b506001019056fea26469706673582212201f8f26d48c8af4eacb8349947c6849a01f537d53f82953e71d1aa9d4d610d26b64736f6c63430008130033",
  "immutableReferences": {},
  "source": "// SPDX-License-Identifier: MIT\npragma solidity 0.8.19;\n\ncontract CrowdFunding{\n    struct Campaign{\n        address payable receiver;\n        uint numFunders;\n        uint fundingGoal;\n        uint totalAmount;\n    }\n\n    struct Funder{\n        address addr;\n        uint amount;\n    }\n\n    uint public numCampaign;\n    mapping(uint=>Campaign) campaigns;\n    mapping(uint=>Funder[]) funders;\n    mapping(uint=>mapping(address=>bool)) public isParticipate;\n\n    modifier judgeParticipate(uint campaignID){\n        require(isParticipate[campaignID][msg.sender] == false);\n        _;\n    }\n\n    function newCampaign(address payable receiver,uint goal) external returns(uint campaignID){\n        campaignID = numCampaign++;\n        Campaign storage c = campaigns[campaignID];\n        c.receiver = receiver;\n        c.fundingGoal = goal;\n\n    }\n\n    function bid (uint campaignID) external payable judgeParticipate(campaignID) {\n        Campaign storage c = campaigns[campaignID];\n\n        c.totalAmount += msg.value;\n        c.numFunders +=1;\n\n        funders[campaignID].push(Funder({\n            addr:msg.sender,\n            amount:msg.value\n        }));\n\n        isParticipate[campaignID][msg.sender] = true;\n    }\n\n    function withraw(uint campaignID) external returns(bool reached){\n        Campaign storage c = campaigns[campaignID];\n\n        if(c.totalAmount < c.fundingGoal){\n            return false;\n        }\n\n        uint amount = c.totalAmount;\n        c.totalAmount = 0;\n        c.receiver.transfer(amount);\n\n        return true;\n    }\n}",
  "sourcePath": "/home/zt/github.com/truffle-demo/contracts/crowdFunding.sol",
  "compiler": {
    "name": "solc",
    "version": "0.8.19+commit.7dd6d404.Emscripten.clang"
  },
  "schemaVersion": "3.4.13",
  "updatedAt": "2023-04-06T14:37:45.950Z",
  "devdoc": {
    "kind": "dev",
    "methods": {},
    "version": 1
  },
  "userdoc": {
    "kind": "user",
    "methods": {},
    "version": 1
  }
}