{
  "contractName": "Mintable721",
  "abi": [
    {
      "inputs": [
        {
          "internalType": "string",
          "name": "_name",
          "type": "string"
        },
        {
          "internalType": "string",
          "name": "_symbol",
          "type": "string"
        }
      ],
      "stateMutability": "nonpayable",
      "type": "constructor"
    },
    {
      "anonymous": false,
      "inputs": [
        {
          "indexed": true,
          "internalType": "address",
          "name": "owner",
          "type": "address"
        },
        {
          "indexed": true,
          "internalType": "address",
          "name": "approved",
          "type": "address"
        },
        {
          "indexed": true,
          "internalType": "uint256",
          "name": "tokenId",
          "type": "uint256"
        }
      ],
      "name": "Approval",
      "type": "event"
    },
    {
      "anonymous": false,
      "inputs": [
        {
          "indexed": true,
          "internalType": "address",
          "name": "owner",
          "type": "address"
        },
        {
          "indexed": true,
          "internalType": "address",
          "name": "operator",
          "type": "address"
        },
        {
          "indexed": false,
          "internalType": "bool",
          "name": "approved",
          "type": "bool"
        }
      ],
      "name": "ApprovalForAll",
      "type": "event"
    },
    {
      "anonymous": false,
      "inputs": [
        {
          "indexed": true,
          "internalType": "address",
          "name": "previousOwner",
          "type": "address"
        },
        {
          "indexed": true,
          "internalType": "address",
          "name": "newOwner",
          "type": "address"
        }
      ],
      "name": "OwnershipTransferred",
      "type": "event"
    },
    {
      "anonymous": false,
      "inputs": [
        {
          "indexed": true,
          "internalType": "address",
          "name": "from",
          "type": "address"
        },
        {
          "indexed": true,
          "internalType": "address",
          "name": "to",
          "type": "address"
        },
        {
          "indexed": true,
          "internalType": "uint256",
          "name": "tokenId",
          "type": "uint256"
        }
      ],
      "name": "Transfer",
      "type": "event"
    },
    {
      "inputs": [],
      "name": "_CUR_TOKEN_",
      "outputs": [
        {
          "internalType": "uint256",
          "name": "",
          "type": "uint256"
        }
      ],
      "stateMutability": "view",
      "type": "function"
    },
    {
      "inputs": [
        {
          "internalType": "address",
          "name": "to",
          "type": "address"
        },
        {
          "internalType": "uint256",
          "name": "tokenId",
          "type": "uint256"
        }
      ],
      "name": "approve",
      "outputs": [],
      "stateMutability": "nonpayable",
      "type": "function"
    },
    {
      "inputs": [
        {
          "internalType": "address",
          "name": "owner",
          "type": "address"
        }
      ],
      "name": "balanceOf",
      "outputs": [
        {
          "internalType": "uint256",
          "name": "",
          "type": "uint256"
        }
      ],
      "stateMutability": "view",
      "type": "function"
    },
    {
      "inputs": [
        {
          "internalType": "uint256",
          "name": "tokenId",
          "type": "uint256"
        }
      ],
      "name": "getApproved",
      "outputs": [
        {
          "internalType": "address",
          "name": "",
          "type": "address"
        }
      ],
      "stateMutability": "view",
      "type": "function"
    },
    {
      "inputs": [
        {
          "internalType": "address",
          "name": "owner",
          "type": "address"
        },
        {
          "internalType": "address",
          "name": "operator",
          "type": "address"
        }
      ],
      "name": "isApprovedForAll",
      "outputs": [
        {
          "internalType": "bool",
          "name": "",
          "type": "bool"
        }
      ],
      "stateMutability": "view",
      "type": "function"
    },
    {
      "inputs": [],
      "name": "name",
      "outputs": [
        {
          "internalType": "string",
          "name": "",
          "type": "string"
        }
      ],
      "stateMutability": "view",
      "type": "function"
    },
    {
      "inputs": [],
      "name": "owner",
      "outputs": [
        {
          "internalType": "address",
          "name": "",
          "type": "address"
        }
      ],
      "stateMutability": "view",
      "type": "function"
    },
    {
      "inputs": [
        {
          "internalType": "uint256",
          "name": "tokenId",
          "type": "uint256"
        }
      ],
      "name": "ownerOf",
      "outputs": [
        {
          "internalType": "address",
          "name": "",
          "type": "address"
        }
      ],
      "stateMutability": "view",
      "type": "function"
    },
    {
      "inputs": [],
      "name": "renounceOwnership",
      "outputs": [],
      "stateMutability": "nonpayable",
      "type": "function"
    },
    {
      "inputs": [
        {
          "internalType": "address",
          "name": "from",
          "type": "address"
        },
        {
          "internalType": "address",
          "name": "to",
          "type": "address"
        },
        {
          "internalType": "uint256",
          "name": "tokenId",
          "type": "uint256"
        }
      ],
      "name": "safeTransferFrom",
      "outputs": [],
      "stateMutability": "nonpayable",
      "type": "function"
    },
    {
      "inputs": [
        {
          "internalType": "address",
          "name": "from",
          "type": "address"
        },
        {
          "internalType": "address",
          "name": "to",
          "type": "address"
        },
        {
          "internalType": "uint256",
          "name": "tokenId",
          "type": "uint256"
        },
        {
          "internalType": "bytes",
          "name": "data",
          "type": "bytes"
        }
      ],
      "name": "safeTransferFrom",
      "outputs": [],
      "stateMutability": "nonpayable",
      "type": "function"
    },
    {
      "inputs": [
        {
          "internalType": "address",
          "name": "operator",
          "type": "address"
        },
        {
          "internalType": "bool",
          "name": "approved",
          "type": "bool"
        }
      ],
      "name": "setApprovalForAll",
      "outputs": [],
      "stateMutability": "nonpayable",
      "type": "function"
    },
    {
      "inputs": [
        {
          "internalType": "bytes4",
          "name": "interfaceId",
          "type": "bytes4"
        }
      ],
      "name": "supportsInterface",
      "outputs": [
        {
          "internalType": "bool",
          "name": "",
          "type": "bool"
        }
      ],
      "stateMutability": "view",
      "type": "function"
    },
    {
      "inputs": [],
      "name": "symbol",
      "outputs": [
        {
          "internalType": "string",
          "name": "",
          "type": "string"
        }
      ],
      "stateMutability": "view",
      "type": "function"
    },
    {
      "inputs": [
        {
          "internalType": "uint256",
          "name": "tokenId",
          "type": "uint256"
        }
      ],
      "name": "tokenURI",
      "outputs": [
        {
          "internalType": "string",
          "name": "",
          "type": "string"
        }
      ],
      "stateMutability": "view",
      "type": "function"
    },
    {
      "inputs": [
        {
          "internalType": "address",
          "name": "from",
          "type": "address"
        },
        {
          "internalType": "address",
          "name": "to",
          "type": "address"
        },
        {
          "internalType": "uint256",
          "name": "tokenId",
          "type": "uint256"
        }
      ],
      "name": "transferFrom",
      "outputs": [],
      "stateMutability": "nonpayable",
      "type": "function"
    },
    {
      "inputs": [
        {
          "internalType": "address",
          "name": "newOwner",
          "type": "address"
        }
      ],
      "name": "transferOwnership",
      "outputs": [],
      "stateMutability": "nonpayable",
      "type": "function"
    },
    {
      "inputs": [
        {
          "internalType": "address[]",
          "name": "receivers",
          "type": "address[]"
        },
        {
          "internalType": "string[]",
          "name": "uris",
          "type": "string[]"
        }
      ],
      "name": "mint",
      "outputs": [],
      "stateMutability": "nonpayable",
      "type": "function"
    }
  ],
  "bytecode": "0x60806040523480156200001157600080fd5b5060405162001f3038038062001f308339810160408190526200003491620001be565b81816000620000448382620002d0565b506001620000538282620002d0565b50505062000082620000736200008a640100000000026401000000009004565b6401000000006200008e810204565b5050620003a2565b3390565b60078054600160a060020a03838116600160a060020a0319831681179093556040519116919082907f8be0079c531659141344cd1fd0a4f28419497f9722a3daafe3b4186f6b6457e090600090a35050565b7f4e487b7100000000000000000000000000000000000000000000000000000000600052604160045260246000fd5b600082601f8301126200012157600080fd5b81516001604060020a03808211156200013e576200013e620000e0565b604051601f8301601f19908116603f01168101908282118183101715620001695762000169620000e0565b816040528381526020925086838588010111156200018657600080fd5b600091505b83821015620001aa57858201830151818301840152908201906200018b565b600093810190920192909252949350505050565b60008060408385031215620001d257600080fd5b82516001604060020a0380821115620001ea57600080fd5b620001f8868387016200010f565b935060208501519150808211156200020f57600080fd5b506200021e858286016200010f565b9150509250929050565b6002810460018216806200023d57607f821691505b60208210810362000277577f4e487b7100000000000000000000000000000000000000000000000000000000600052602260045260246000fd5b50919050565b601f821115620002cb576000818152602081206020601f86010481016020861015620002a65750805b6020601f860104820191505b81811015620002c757828155600101620002b2565b5050505b505050565b81516001604060020a03811115620002ec57620002ec620000e0565b6200030481620002fd845462000228565b846200027d565b602080601f831160018114620003405760008415620003235750858301515b60028086026008870290910a6000190419821617865550620002c7565b600085815260208120601f198616915b82811015620003715788860151825594840194600190910190840162000350565b50858210156200039257878501516008601f88160260020a60001904191681555b5050505050600202600101905550565b611b7e80620003b26000396000f3fe608060405234801561001057600080fd5b5060043610610133576000357c010000000000000000000000000000000000000000000000000000000090048063715018a6116100bf578063ac84ba581161008e578063ac84ba5814610256578063b88d4fde1461025f578063c87b56dd14610272578063e985e9c514610285578063f2fde38b1461029857600080fd5b8063715018a6146102225780638da5cb5b1461022a57806395d89b411461023b578063a22cb4651461024357600080fd5b806323b872dd1161010657806323b872dd146101b557806342842e0e146101c85780634c7bc5cf146101db5780636352211e146101ee57806370a082311461020157600080fd5b806301ffc9a71461013857806306fdde0314610160578063081812fc14610175578063095ea7b3146101a0575b600080fd5b61014b610146366004611462565b6102ab565b60405190151581526020015b60405180910390f35b610168610348565b60405161015791906114cf565b6101886101833660046114e2565b6103da565b604051600160a060020a039091168152602001610157565b6101b36101ae366004611517565b610401565b005b6101b36101c3366004611541565b61053d565b6101b36101d6366004611541565b610571565b6101b36101e93660046115c8565b61058c565b6101886101fc3660046114e2565b6106b1565b61021461020f366004611634565b610719565b604051908152602001610157565b6101b36107b6565b600754600160a060020a0316610188565b6101686107ca565b6101b361025136600461164f565b6107d9565b61021460085481565b6101b361026d3660046116a4565b6107e8565b6101686102803660046114e2565b610823565b61014b610293366004611780565b610933565b6101b36102a6366004611634565b610961565b6000600160e060020a031982167f80ac58cd00000000000000000000000000000000000000000000000000000000148061030e5750600160e060020a031982167f5b5e139f00000000000000000000000000000000000000000000000000000000145b8061034257507f01ffc9a700000000000000000000000000000000000000000000000000000000600160e060020a03198316145b92915050565b606060008054610357906117b3565b80601f0160208091040260200160405190810160405280929190818152602001828054610383906117b3565b80156103d05780601f106103a5576101008083540402835291602001916103d0565b820191906000526020600020905b8154815290600101906020018083116103b357829003601f168201915b5050505050905090565b60006103e5826109f4565b50600090815260046020526040902054600160a060020a031690565b600061040c826106b1565b905080600160a060020a031683600160a060020a03160361049d5760405160e560020a62461bcd02815260206004820152602160248201527f4552433732313a20617070726f76616c20746f2063757272656e74206f776e6560448201527f720000000000000000000000000000000000000000000000000000000000000060648201526084015b60405180910390fd5b33600160a060020a03821614806104b957506104b98133610933565b61052e5760405160e560020a62461bcd02815260206004820152603d60248201527f4552433732313a20617070726f76652063616c6c6572206973206e6f7420746f60448201527f6b656e206f776e6572206f7220617070726f76656420666f7220616c6c0000006064820152608401610494565b6105388383610a5b565b505050565b6105473382610ad6565b6105665760405160e560020a62461bcd028152600401610494906117f0565b610538838383610b34565b610538838383604051806020016040528060008152506107e8565b610594610cc7565b8281146105e65760405160e560020a62461bcd02815260206004820152601260248201527f504152414d53204e4f54204d41544348454400000000000000000000000000006044820152606401610494565b60005b838110156106aa576106238585838181106106065761060661184d565b905060200201602081019061061b9190611634565b600854610d24565b61068760085484848481811061063b5761063b61184d565b905060200281019061064d9190611866565b8080601f016020809104026020016040519081016040528093929190818152602001838380828437600092019190915250610d3e92505050565b6008546106959060016118c6565b600855806106a2816118d9565b9150506105e9565b5050505050565b600081815260026020526040812054600160a060020a0316806103425760405160e560020a62461bcd02815260206004820152601860248201527f4552433732313a20696e76616c696420746f6b656e20494400000000000000006044820152606401610494565b6000600160a060020a03821661079a5760405160e560020a62461bcd02815260206004820152602960248201527f4552433732313a2061646472657373207a65726f206973206e6f74206120766160448201527f6c6964206f776e657200000000000000000000000000000000000000000000006064820152608401610494565b50600160a060020a031660009081526003602052604090205490565b6107be610cc7565b6107c86000610de3565b565b606060018054610357906117b3565b6107e4338383610e42565b5050565b6107f23383610ad6565b6108115760405160e560020a62461bcd028152600401610494906117f0565b61081d84848484610f13565b50505050565b606061082e826109f4565b60008281526006602052604081208054610847906117b3565b80601f0160208091040260200160405190810160405280929190818152602001828054610873906117b3565b80156108c05780601f10610895576101008083540402835291602001916108c0565b820191906000526020600020905b8154815290600101906020018083116108a357829003601f168201915b5050505050905060006108de60408051602081019091526000815290565b905080516000036108f0575092915050565b81511561092257808260405160200161090a9291906118f2565b60405160208183030381529060405292505050919050565b61092b84610f49565b949350505050565b600160a060020a03918216600090815260056020908152604080832093909416825291909152205460ff1690565b610969610cc7565b600160a060020a0381166109e85760405160e560020a62461bcd02815260206004820152602660248201527f4f776e61626c653a206e6577206f776e657220697320746865207a65726f206160448201527f64647265737300000000000000000000000000000000000000000000000000006064820152608401610494565b6109f181610de3565b50565b600081815260026020526040902054600160a060020a03166109f15760405160e560020a62461bcd02815260206004820152601860248201527f4552433732313a20696e76616c696420746f6b656e20494400000000000000006044820152606401610494565b6000818152600460205260409020805473ffffffffffffffffffffffffffffffffffffffff1916600160a060020a0384169081179091558190610a9d826106b1565b600160a060020a03167f8c5be1e5ebec7d5bd14f71427d1e84f3dd0314c0f7b2291e5b200ac8c7c3b92560405160405180910390a45050565b600080610ae2836106b1565b905080600160a060020a031684600160a060020a03161480610b095750610b098185610933565b8061092b575083600160a060020a0316610b22846103da565b600160a060020a031614949350505050565b82600160a060020a0316610b47826106b1565b600160a060020a031614610b705760405160e560020a62461bcd02815260040161049490611921565b600160a060020a038216610bee5760405160e560020a62461bcd028152602060048201526024808201527f4552433732313a207472616e7366657220746f20746865207a65726f2061646460448201527f72657373000000000000000000000000000000000000000000000000000000006064820152608401610494565b82600160a060020a0316610c01826106b1565b600160a060020a031614610c2a5760405160e560020a62461bcd02815260040161049490611921565b6000818152600460209081526040808320805473ffffffffffffffffffffffffffffffffffffffff19908116909155600160a060020a0387811680865260038552838620805460001901905590871680865283862080546001019055868652600290945282852080549092168417909155905184937fddf252ad1be2c89b69c2b068fc378daa952ba7f163c4a11628f55a4df523b3ef91a4505050565b600754600160a060020a031633146107c85760405160e560020a62461bcd02815260206004820181905260248201527f4f776e61626c653a2063616c6c6572206973206e6f7420746865206f776e65726044820152606401610494565b6107e4828260405180602001604052806000815250610fbd565b600082815260026020526040902054600160a060020a0316610dcb5760405160e560020a62461bcd02815260206004820152602e60248201527f45524337323155524953746f726167653a2055524920736574206f66206e6f6e60448201527f6578697374656e7420746f6b656e0000000000000000000000000000000000006064820152608401610494565b600082815260066020526040902061053882826119cc565b60078054600160a060020a0383811673ffffffffffffffffffffffffffffffffffffffff19831681179093556040519116919082907f8be0079c531659141344cd1fd0a4f28419497f9722a3daafe3b4186f6b6457e090600090a35050565b81600160a060020a031683600160a060020a031603610ea65760405160e560020a62461bcd02815260206004820152601960248201527f4552433732313a20617070726f766520746f2063616c6c6572000000000000006044820152606401610494565b600160a060020a03838116600081815260056020908152604080832094871680845294825291829020805460ff191686151590811790915591519182527f17307eab39ab6107e8899845ad3d59bd9653f200f220920489ca2b5937696c31910160405180910390a3505050565b610f1e848484610b34565b610f2a84848484610ff3565b61081d5760405160e560020a62461bcd02815260040161049490611a92565b6060610f54826109f4565b6000610f6b60408051602081019091526000815290565b90506000815111610f8b5760405180602001604052806000815250610fb6565b80610f9584611129565b604051602001610fa69291906118f2565b6040516020818303038152906040525b9392505050565b610fc783836111c9565b610fd46000848484610ff3565b6105385760405160e560020a62461bcd02815260040161049490611a92565b6000600160a060020a0384163b1561111e576040517f150b7a02000000000000000000000000000000000000000000000000000000008152600160a060020a0385169063150b7a0290611050903390899088908890600401611aef565b6020604051808303816000875af192505050801561108b575060408051601f3d908101601f1916820190925261108891810190611b2b565b60015b6110eb573d8080156110b9576040519150601f19603f3d011682016040523d82523d6000602084013e6110be565b606091505b5080516000036110e35760405160e560020a62461bcd02815260040161049490611a92565b805181602001fd5b600160e060020a0319167f150b7a020000000000000000000000000000000000000000000000000000000014905061092b565b506001949350505050565b606060006111368361136a565b600101905060008167ffffffffffffffff8111156111565761115661168b565b6040519080825280601f01601f191660200182016040528015611180576020820181803683370190505b5090508181016020015b600019017f3031323334353637383961626364656600000000000000000000000000000000600a86061a8153600a850494508461118a57509392505050565b600160a060020a0382166112225760405160e560020a62461bcd02815260206004820181905260248201527f4552433732313a206d696e7420746f20746865207a65726f20616464726573736044820152606401610494565b600081815260026020526040902054600160a060020a03161561128a5760405160e560020a62461bcd02815260206004820152601c60248201527f4552433732313a20746f6b656e20616c7265616479206d696e746564000000006044820152606401610494565b600081815260026020526040902054600160a060020a0316156112f25760405160e560020a62461bcd02815260206004820152601c60248201527f4552433732313a20746f6b656e20616c7265616479206d696e746564000000006044820152606401610494565b600160a060020a0382166000818152600360209081526040808320805460010190558483526002909152808220805473ffffffffffffffffffffffffffffffffffffffff19168417905551839291907fddf252ad1be2c89b69c2b068fc378daa952ba7f163c4a11628f55a4df523b3ef908290a45050565b6000807a184f03e93ff9f4daa797ed6e38ed64bf6a1f01000000000000000083106113b3577a184f03e93ff9f4daa797ed6e38ed64bf6a1f010000000000000000830492506040015b6d04ee2d6d415b85acef810000000083106113df576d04ee2d6d415b85acef8100000000830492506020015b662386f26fc1000083106113fd57662386f26fc10000830492506010015b6305f5e1008310611415576305f5e100830492506008015b612710831061142957612710830492506004015b6064831061143b576064830492506002015b600a83106103425760010192915050565b600160e060020a0319811681146109f157600080fd5b60006020828403121561147457600080fd5b8135610fb68161144c565b60005b8381101561149a578181015183820152602001611482565b50506000910152565b600081518084526114bb81602086016020860161147f565b601f01601f19169290920160200192915050565b602081526000610fb660208301846114a3565b6000602082840312156114f457600080fd5b5035919050565b8035600160a060020a038116811461151257600080fd5b919050565b6000806040838503121561152a57600080fd5b611533836114fb565b946020939093013593505050565b60008060006060848603121561155657600080fd5b61155f846114fb565b925061156d602085016114fb565b9150604084013590509250925092565b60008083601f84011261158f57600080fd5b50813567ffffffffffffffff8111156115a757600080fd5b60208301915083602080830285010111156115c157600080fd5b9250929050565b600080600080604085870312156115de57600080fd5b843567ffffffffffffffff808211156115f657600080fd5b6116028883890161157d565b9096509450602087013591508082111561161b57600080fd5b506116288782880161157d565b95989497509550505050565b60006020828403121561164657600080fd5b610fb6826114fb565b6000806040838503121561166257600080fd5b61166b836114fb565b91506020830135801515811461168057600080fd5b809150509250929050565b60e060020a634e487b7102600052604160045260246000fd5b600080600080608085870312156116ba57600080fd5b6116c3856114fb565b93506116d1602086016114fb565b925060408501359150606085013567ffffffffffffffff808211156116f557600080fd5b818701915087601f83011261170957600080fd5b81358181111561171b5761171b61168b565b604051601f8201601f19908116603f011681019083821181831017156117435761174361168b565b816040528281528a602084870101111561175c57600080fd5b82602086016020830137600060208483010152809550505050505092959194509250565b6000806040838503121561179357600080fd5b61179c836114fb565b91506117aa602084016114fb565b90509250929050565b6002810460018216806117c757607f821691505b6020821081036117ea5760e060020a634e487b7102600052602260045260246000fd5b50919050565b6020808252602d908201527f4552433732313a2063616c6c6572206973206e6f7420746f6b656e206f776e6560408201527f72206f7220617070726f76656400000000000000000000000000000000000000606082015260800190565b60e060020a634e487b7102600052603260045260246000fd5b6000808335601e1984360301811261187d57600080fd5b83018035915067ffffffffffffffff82111561189857600080fd5b6020019150368190038213156115c157600080fd5b60e060020a634e487b7102600052601160045260246000fd5b80820180821115610342576103426118ad565b6000600182016118eb576118eb6118ad565b5060010190565b6000835161190481846020880161147f565b83519083019061191881836020880161147f565b01949350505050565b60208082526025908201527f4552433732313a207472616e736665722066726f6d20696e636f72726563742060408201527f6f776e6572000000000000000000000000000000000000000000000000000000606082015260800190565b601f821115610538576000818152602081206020601f860104810160208610156119a55750805b6020601f860104820191505b818110156119c4578281556001016119b1565b505050505050565b815167ffffffffffffffff8111156119e6576119e661168b565b6119fa816119f484546117b3565b8461197e565b602080601f831160018114611a335760008415611a175750858301515b60028086026008870290910a60001904198216178655506119c4565b600085815260208120601f198616915b82811015611a6257888601518255948401946001909101908401611a43565b5085821015611a8257878501516008601f88160260020a60001904191681555b5050505050600202600101905550565b60208082526032908201527f4552433732313a207472616e7366657220746f206e6f6e20455243373231526560408201527f63656976657220696d706c656d656e7465720000000000000000000000000000606082015260800190565b6000600160a060020a03808716835280861660208401525083604083015260806060830152611b2160808301846114a3565b9695505050505050565b600060208284031215611b3d57600080fd5b8151610fb68161144c56fea26469706673582212202bf446970dc284dcb97ad2abfe06deae315349032c668bc0cc81673ac97cfcd164736f6c63430008130033",
  "immutableReferences": {},
  "source": "// SPDX-License-Identifier: MIT\npragma solidity 0.8.19;\n\nimport \"@openzeppelin/contracts/token/ERC721/extensions/ERC721URIStorage.sol\";\nimport \"@openzeppelin/contracts/token/ERC721/ERC721.sol\";\nimport \"@openzeppelin/contracts/access/Ownable.sol\";\n\ncontract Mintable721 is ERC721URIStorage, Ownable{\n    uint256 public _CUR_TOKEN_;\n\n    constructor(string memory _name, string memory _symbol) ERC721(_name, _symbol){}\n\n    function mint(\n        address[] calldata receivers,\n        string[] calldata uris\n    )external onlyOwner{\n        require(receivers.length == uris.length,\"PARAMS NOT MATCHED\");\n        for(uint256 i = 0; i < receivers.length; i++){\n            _safeMint(receivers[i], _CUR_TOKEN_);\n            _setTokenURI(_CUR_TOKEN_, uris[i]);\n            _CUR_TOKEN_ = _CUR_TOKEN_ + 1;\n        }\n    }\n}",
  "sourcePath": "/home/zt/github.com/truffle-demo/contracts/Mintable721.sol",
  "compiler": {
    "name": "solc",
    "version": "0.8.19+commit.7dd6d404.Emscripten.clang"
  },
  "schemaVersion": "3.4.13",
  "updatedAt": "2023-04-06T14:37:45.946Z",
  "devdoc": {
    "events": {
      "Approval(address,address,uint256)": {
        "details": "Emitted when `owner` enables `approved` to manage the `tokenId` token."
      },
      "ApprovalForAll(address,address,bool)": {
        "details": "Emitted when `owner` enables or disables (`approved`) `operator` to manage all of its assets."
      },
      "Transfer(address,address,uint256)": {
        "details": "Emitted when `tokenId` token is transferred from `from` to `to`."
      }
    },
    "kind": "dev",
    "methods": {
      "approve(address,uint256)": {
        "details": "See {IERC721-approve}."
      },
      "balanceOf(address)": {
        "details": "See {IERC721-balanceOf}."
      },
      "getApproved(uint256)": {
        "details": "See {IERC721-getApproved}."
      },
      "isApprovedForAll(address,address)": {
        "details": "See {IERC721-isApprovedForAll}."
      },
      "name()": {
        "details": "See {IERC721Metadata-name}."
      },
      "owner()": {
        "details": "Returns the address of the current owner."
      },
      "ownerOf(uint256)": {
        "details": "See {IERC721-ownerOf}."
      },
      "renounceOwnership()": {
        "details": "Leaves the contract without owner. It will not be possible to call `onlyOwner` functions anymore. Can only be called by the current owner. NOTE: Renouncing ownership will leave the contract without an owner, thereby removing any functionality that is only available to the owner."
      },
      "safeTransferFrom(address,address,uint256)": {
        "details": "See {IERC721-safeTransferFrom}."
      },
      "safeTransferFrom(address,address,uint256,bytes)": {
        "details": "See {IERC721-safeTransferFrom}."
      },
      "setApprovalForAll(address,bool)": {
        "details": "See {IERC721-setApprovalForAll}."
      },
      "supportsInterface(bytes4)": {
        "details": "See {IERC165-supportsInterface}."
      },
      "symbol()": {
        "details": "See {IERC721Metadata-symbol}."
      },
      "tokenURI(uint256)": {
        "details": "See {IERC721Metadata-tokenURI}."
      },
      "transferFrom(address,address,uint256)": {
        "details": "See {IERC721-transferFrom}."
      },
      "transferOwnership(address)": {
        "details": "Transfers ownership of the contract to a new account (`newOwner`). Can only be called by the current owner."
      }
    },
    "version": 1
  },
  "userdoc": {
    "kind": "user",
    "methods": {},
    "version": 1
  }
}